:10000000960A0400970C020046040B0C0600FF0C35
:1000100035001502320012023300070C2800D1040B
:100020006D006E006F007000F1046B006C00000842
:1000300046029501340014025201FF0F32001402EF
:100040005301920133001302520174011402B501ED
:10005000140255013601000827001607350A31053C
:1000600007022800010CB601360A310436073E0AA1
:10007000510507022800020CB6013F0A510400088E
:10008000610069006A0000086100040C8100030639
:100090004A0A450A00086607520AF60C2B00040CAF
:1000A0002C005D0A0B020C0143065B0AEB008B027D
:1000B0004306EC005D0A070C280000086607760A74
:1000C000D106670AF60C2D00040C2E00750A0D02ED
:1000D0000E014306700AED008D024306EE00750A1C
:1000E000F105A00C2F000F0C3000760A0F02100152
:1000F00043067F0AEF008F024306F000800AF104F6
:10010000D1046606D105000871078A0A2604090C85
:1001100006008D0A06040A0C060000080B0C0600F7
:100120007107940A2605950A0605000801090400CE
:1001300018094409A9024306AA024B095E09C8002E
:100140004307B00AF106A60A020C2C093107AB0AD4
:1001500040097104AF0A5107AF0A40097105D60A78
:100160000802020F4307D60A020C2C0991057106FA
:10017000910431079104B1045106B1057107B1042E
:100180009107C50A030C2800D60AB107CA0A030C56
:100190002800D60A010C8A000307D60A4307D40AAE
:1001A000E90C89000307D60A070C28000802030F90
:1001B0004307E40A1104660611054009040C2800EF
:1001C000F60C2B00040C2C000802040F4307070B4D
:1001D000070C2C096607EE0A4604EF0A46051106CD
:1001E000F40A6606F60AFA0A6606FA0A11046606B0
:1001F00011054009040C8A000307070B4307040B91
:10020000950C89000307070B050C2800460408021B
:10021000050F4307140B6607120B84094009060CEF
:100220002800140B070C28000802060F4307220BB6
:100230000A0243071F0BC90C89000307220B8E0912
:10024000070C28000802070F43072B0B3104510449
:08025000010C28004604970A86
:021FFE000E00D3
:00000001FF
