:100000009C0A0400970C020046040B0C0600FF0C2F
:10001000A40435001502320012023300070C280038
:10002000CF046D006E0070007100EF046B006C0077
:1000300000084602A4049501340014025201FF0F87
:100040003200140253019201330013025201740171
:100050001402B50114025501360100082700A4045A
:100060001607380A2F0507022800010CB601390AC5
:100070002F04A4043607420A4F0507022800020C89
:10008000B601430A4F040008610069006A000008D5
:100090006100040C810003064E0A490A0008660745
:1000A000560AF60C2B00040C2C00610A0B020C0102
:1000B00043065F0AEB008B024306EC00610A070C63
:1000C0002800000866077B0ACF066B0AF60C2D0095
:1000D000040C2E007A0A0D020E014306740AED008C
:1000E0008D024306EE007A0AEF05A00CA40430004E
:1000F0000F0C31007B0AA404100211014306850A8B
:10010000F00090024306F100860AEF04CF04660671
:10011000CF0500086F07900A2604090C0600930A11
:1001200006040A0C060000080B0C06006F079A0A6A
:1001300026059B0A0605000801090400190948095B
:10014000A9024306AA024F096209C8004307B60A7A
:10015000EF06AC0A020C2E092F07B10A44096F04FE
:10016000B50A4F07B50A44096F05DC0A0802020FF9
:100170004307DC0A020C2E098F056F068F042F0738
:100180008F04AF044F06AF056F07AF048F07CB0A8C
:10019000030C2800DC0AAF07D00A030C2800DC0A95
:1001A000010C8A000307DC0A4307DA0AE90C89001C
:1001B0000307DC0A070C28000802030F4307EA0ABA
:1001C0000F0466060F054409040C2800F60C2B00EA
:1001D000040C2C000802040F43070D0B070C2E091A
:1001E0006607F40A4604F50A46050F06FA0A66068B
:1001F000FC0A000B6606000B0F0466060F05440997
:10020000040C8A0003070D0B43070A0B950C8900A9
:1002100003070D0B050C280046040802050F4307D1
:100220001A0B6607180B8A094409060C28001A0BDA
:10023000070C28000802060F4307280B0A02430791
:10024000250BC90C89000307280B9409070C28000B
:100250000802070F4307310B2F044F04010C28003D
:0402600046049D0AA9
:021FFE000E00D3
:00000001FF
