:10000000680A0400970C020046040B0C0600FF0C63
:10001000320012022F000F023000070C29000008E6
:1000200046029201310011024F01FF0F2F00110211
:1000300050018F01300010024F0171011102B20115
:100040001102520133010008280013072D0A2E0562
:1000500008022900010CB3012E0A2E043307360AC8
:100060004E0508022900020CB301370A4E040008AD
:1000700061006A006B0000086100040C8100030647
:10008000420A3D0A000866074A0AF60C2C00040CD6
:100090002D00550A0C020D014306530AEC008C0298
:1000A0004306ED00550A070C290000086E075C0A9C
:1000B0002604090C06005F0A06040A0C0600000864
:1000C0000B0C06006E07660A2605670A060500087F
:1000D0000109040010093C09AA024306AB024309C6
:1000E000C90043077F0A020C24092E077A0A38093F
:1000F0006E047E0A4E077E0A38096E05A50A0902BB
:10010000020F4307A50A020C24098E056E068E0411
:100110002E078E04AE044E06AE056E07AE048E07A3
:10012000940A030C2900A50AAE07990A030C2900BA
:10013000A50A010C8B000307A50A4307A30AE90CD3
:100140008A000307A50A070C29000902030F4307C9
:10015000B30A0E0466060E053809040C2900F60CD5
:100160002C00040C2D000902040F4307D60A070CCB
:1001700024096607BD0A4604BE0A46050E06C30AE0
:100180006606C50AC90A6606C90A0E0466060E0591
:100190003809040C8B000307D60A4307D30A950CD1
:1001A0008A000307D60A050C290046040902050F38
:1001B0004307E30A6607E10A56093809060C2900D5
:1001C000E30A070C29000902060F4307F10A0B0294
:1001D0004307EE0A320C8A000307F10A6009070C94
:1001E00029000902070F4307FA0A2E044E04010CE6
:0601F00029004604690A23
:00000001FF
