:10000000960A0400970C020046040B0C0600FF0C35
:1000100036001602330013023400070C2900D20404
:100020006E006F0070007100F2046C006D0000083B
:1000300046029601350015025301FF0F33001502E9
:100040005401930134001402530175011502B601E5
:10005000150256013701000828001707350A320536
:1000600008022900010CB701360A320437073E0A9C
:10007000520508022900020CB7013F0A5204000889
:1000800061006A006B0000086100040C8100030637
:100090004A0A450A00086607520AF60C2C00040CAE
:1000A0002D005D0A0C020D0143065B0AEC008C0278
:1000B0004306ED005D0A070C290000086607760A72
:1000C000D206670AF60C2E00040C2F00750A0E02E9
:1000D0000F014306700AEE008E024306EF00750A18
:1000E000F205A00C30000F0C3100760A100211014D
:1000F00043067F0AF00090024306F100800AF204F2
:10010000D2046606D205000872078A0A2604090C82
:1001100006008D0A06040A0C060000080B0C0600F7
:100120007207940A2605950A0605000801090400CD
:1001300018094409AA024306AB024B095E09C9002B
:100140004307B00AF206A60A020C2C093207AB0AD2
:1001500040097204AF0A5207AF0A40097205D60A75
:100160000902020F4307D60A020C2C0992057206F7
:10017000920432079204B2045206B2057207B20426
:100180009207C50A030C2900D60AB207CA0A030C53
:100190002900D60A010C8B000307D60A4307D40AAC
:1001A000E90C8A000307D60A070C29000902030F8D
:1001B0004307E40A1204660612054009040C2900EC
:1001C000F60C2C00040C2D000902040F4307070B4A
:1001D000070C2C096607EE0A4604EF0A46051206CC
:1001E000F40A6606F60AFA0A6606FA0A12046606AF
:1001F00012054009040C8B000307070B4307040B8F
:10020000950C8A000307070B050C29004604090218
:10021000050F4307140B6607120B84094009060CEF
:100220002900140B070C29000902060F4307220BB3
:100230000B0243071F0B320C8A000307220B8E09A7
:10024000070C29000902070F43072B0B3204520445
:08025000010C29004604970A85
:021FFE000D00D4
:00000001FF
